:100000000C9462000C948A000C948A000C948A0070
:100010000C948A000C948A000C948A000C948A0038
:100020000C948A000C948A000C948A000C948A0028
:100030000C948A000C948A000C948A000C948A0018
:100040000C946D050C948A000C94DD050C94B70596
:100050000C948A000C948A000C948A000C948A00F8
:100060000C948A000C948A000000000024002700F1
:100070002A0000000000250028002B0000000008D6
:10008000000201000003040700000000000000005F
:1000900000000000230026002900040404040404D6
:1000A0000404020202020202030303030303010227
:1000B00004081020408001020408102001020408F6
:1000C00010200F0611241FBECFEFD8E0DEBFCDBF3A
:1000D00011E0A0E0B1E0EAEDF3E102C005900D927D
:1000E000A432B107D9F721E0A4E2B1E001C01D922A
:1000F000A53EB207E1F710E0C2E6D0E004C02197C8
:10010000FE010E94E509C136D107C9F70E945C06CD
:100110000C94EB090C940000CF92DF92EF92FF92C7
:10012000CF93DF93B091D901A0E08111AB2F8091E3
:10013000DA0190E0880F991FAC0140575F4FC090E3
:10014000DF01D090E001E090E101F090E20130E0C9
:1001500020E0FA01C591D491E881B90190E080E0F6
:10016000EB23EA130AC02F5F3F4F6C157D058E0508
:100170009F0578F36FEF7FEFCB01DF91CF91FF9079
:10018000EF90DF90CF900895CF92DF92EF92FF92A1
:10019000CF93DF93C82F8091D8018C3009F45EC0D3
:1001A00038F48B30F1F060E070E080EC9FE74FC0F6
:1001B00085518230C0F7D091D4016D2F70E0762F39
:1001C000662766277F778091D501682B90E080E0D5
:1001D0000E949A082DEC3CEC4CEC5DE30E94510926
:1001E00059C06091D40170E090E080E00E949A08CC
:1001F0006B017C01D091D501D7FF0AC0AC019B01F6
:1002000060E070E080E89FEB0E9487076B017C0153
:10021000DF706D2F70E090E080E00E949C082DEC74
:100220003CEC4CEC5DE30E945109A70196010E9451
:100230008807CC2361F026E636E646EE5FE30E94AF
:10024000510920E030E040E052E40E948807DF914D
:10025000CF91FF90EF90DF90CF900895D091D4018F
:100260006D2F70E090E080E00E949A086B017C01A5
:100270006091D5016F7070E090E080E00E949C0872
:100280002DEC3CEC4CEC5DE30E945109A70196017A
:100290000E948807D7FFCDCF9058CBCFCF93DF9365
:1002A00090E0FC01E255FF4F249186569F4FFC01E0
:1002B00084918823D1F090E0880F991FFC01E859C0
:1002C000FF4FA591B491FC01EE58FF4FC591D49119
:1002D000623071F49FB7F8943C91822F809583230C
:1002E0008C93E8812E2B28839FBFDF91CF910895B7
:1002F0008FB7F894EC912E2B2C938FBFF6CF3FB78E
:10030000F89480912D0190912E01A0912F01B09130
:10031000300126B5A89B05C02F3F19F00196A11DFD
:10032000B11D3FBFBA2FA92F982F8827BC01CD013F
:10033000620F711D811D911D42E0660F771F881F9E
:10034000991F4A95D1F708958F929F92AF92BF92CD
:10035000CF92DF92EF92FF924B015C010E947F01EE
:100360006B017C010E947F016C197D098E099F0938
:10037000683E734081059105A8F321E0821A910837
:10038000A108B10888EEC80E83E0D81EE11CF11C5C
:1003900081149104A104B10429F7FF90EF90DF903C
:1003A000CF90BF90AF909F908F9008958F929F9223
:1003B000AF92BF92EF92FF920F931F93CF93DF9371
:1003C000CDB7DEB7C054D1400FB6F894DEBF0FBE34
:1003D000CDBF2FB7F8948091310190913201A09157
:1003E0003301B09134012FBF4091DB015091DC010A
:1003F0006091DD017091DE018C019D01041B150BE4
:10040000260B370BB901A801403D57406105710526
:10041000A0F48091E301C05CDE4F0FB6F894DEBF1C
:100420000FBECDBFDF91CF911F910F91FF90EF9045
:10043000BF90AF909F908F9008958093DB01909331
:10044000DC01A093DD01B093DE011092D601109281
:10045000D5011092D4011092D3011092D20162E022
:100460008091D7010E944E0161E070E080E090E051
:100470000E94A40161E08091D7010E944E01809109
:10048000D70190E0FC01E458FF4F2491FC01E255B4
:10049000FF4F3491FC01E656FF4FE491EE23D9F073
:1004A000222359F0233009F44BC008F03EC021301C
:1004B00009F44CC0223009F44DC0F0E0EE0FFF1FEC
:1004C000EE58FF4FA591B4918FB7F894EC91309509
:1004D0003E233C938FBF8091D8018551823008F034
:1004E00046C08BE291E10197F1F762E08091D7017C
:1004F0000E944E018091E40190E08230910538F035
:10050000880F991F880F991F05970197F1F7F894A5
:1005100080E00E948C006F3F7F4F8F4F9F4F71F59F
:100520001092E301789480E076CF2730B1F0283044
:10053000D1F0243009F0C1CF809180008F7D03C0BD
:10054000809180008F7780938000B7CF84B58F77BC
:1005500084BDB3CF84B58F7DFBCF8091B0008F7702
:100560008093B000AACF8091B0008F7DF9CF64E175
:1005700070E080E090E00E94A401B7CF81E00E948B
:100580008C006F3F7F4F8F4F9F4F51F2CE010196EE
:100590007C015E019FEBA91A9EEFB90A870180E0FA
:1005A0000E948C00F801608371838283938381E0D1
:1005B0000E948C00F8016483758386839783085FAB
:1005C0001F4FA016B10659F7789430E020E0F701EC
:1005D00080809180A280B38044815581668177813B
:1005E000FFEF8F169F06AF06BF0631F04F3F0FEFAC
:1005F00050076007700719F41092E30194CFF901D6
:1006000083E0F595E7958A95E1F7EE52FE4F8081FC
:10061000880F84169506A606B70618F180832F5F0B
:100620003F4F18E0E10EF11C2832310581F6409170
:10063000D6012091D2018091D301280F3327331F97
:100640008091D401280F311D8091D501820F932F05
:10065000911D99274817190679F681E08093E301E7
:10066000DACE8160DBCFAF92BF92CF92DF92EF9272
:10067000FF920F931F93CF93DF936C017B018B014C
:10068000040F151FEB015E01AE18BF08C017D1079C
:1006900059F06991D601ED91FC910190F081E02D26
:1006A000C6010995892B79F7C501DF91CF911F917B
:1006B0000F91FF90EF90DF90CF90BF90AF90089593
:1006C000FC01538D448D252F30E0842F90E0821B58
:1006D000930B541710F0CF96089501970895FC01DD
:1006E000918D828D981761F0A28DAE0FBF2FB11D35
:1006F0005D968C91928D9F5F9F73928F90E008958D
:100700008FEF9FEF0895FC01918D828D981731F046
:10071000828DE80FF11D858D90E008958FEF9FEF9A
:100720000895FC01918D228D892F90E0805C9F4F70
:10073000821B91098F739927089585E391E00E94A8
:10074000910321E0892B09F420E0822F089580E0B5
:1007500090E0892B29F00E949D0381110C940000E8
:100760000895FC01A48DA80FB92FB11DA35ABF4F46
:100770002C91848D90E001968F739927848FA689A0
:10078000B7892C93A089B1898C91837080648C93F4
:10079000938D848D981306C00288F389E02D8081A3
:1007A0008F7D80830895EF92FF920F931F93CF93D5
:1007B000DF93EC0181E0888F9B8D8C8D98131AC09C
:1007C000E889F989808185FF15C09FB7F894EE8983
:1007D000FF896083E889F9898081837080648083E0
:1007E0009FBF81E090E0DF91CF911F910F91FF902B
:1007F000EF900895F62E0B8D10E00F5F1F4F0F73D3
:100800001127E02E8C8D8E110CC00FB607FCFACF8D
:10081000E889F989808185FFF5CFCE010E94B10377
:10082000F1CFEB8DEC0FFD2FF11DE35AFF4FF0825E
:100830009FB7F8940B8FEA89FB8980818062CFCFC4
:10084000CF93DF93EC01888D8823B9F0AA89BB8907
:10085000E889F9898C9185FD03C0808186FD0DC0F2
:100860000FB607FCF7CF8C9185FFF2CF808185FF13
:10087000EDCFCE010E94B103E9CFDF91CF91089572
:10088000FC0101900020E9F73197AF01481B590B9B
:10089000BC0185E391E00C9433038F929F92AF9259
:1008A000BF920F931F93CF93DF93CDB7DEB7A1977E
:1008B0000FB6F894DEBF0FBECDBF19A2423008F4C8
:1008C0004AE08E010F5D1F4F842E912CB12CA12C7C
:1008D000A50194010E94C309E62FB901CA01EA30BB
:1008E000F4F4E05DD801EE938D01232B242B252B0E
:1008F00079F790E080E0109719F0CD010E94400454
:10090000A1960FB6F894DEBF0FBECDBFDF91CF9199
:100910001F910F91BF90AF909F908F900895E95CC9
:10092000E1CF4F925F926F927F928F929F92AF92A0
:10093000BF92CF92DF92EF92FF920F931F93CF93CC
:100940006B017C01742EAC019B010E94BE098823BF
:1009500099F082E191E0CF911F910F91FF90EF907C
:10096000DF90CF90BF90AF909F908F907F906F90CF
:100970005F904F900C94400446015701E894B7F8FB
:100980002FEF3FEF4FE75FE7C501B4010E94BE09BB
:1009900081110DC02FEF3FEF4FE75FE7C501B401B5
:1009A0000E94F40718161CF486E191E0D4CF2FEFD3
:1009B0003FEF4FE75FE4C701B6010E944C091816EC
:1009C0001CF48AE191E0C7CF2FEF3FEF4FE75FECD8
:1009D000C701B6010E94F40787FDF3CF20E030E0A5
:1009E000A901C701B6010E94F40710E000E087FFEB
:1009F0000AC06DE285E391E00E94D3038C01F7FA0F
:100A0000F094F7F8F094C0E060E070E080E09FE3DD
:100A10007C1641F020E030E040E251E40E94F9070A
:100A2000CF5FF6CFA70196010E9488072B013C01FA
:100A30000E946B084B015C014AE00E944D047C015E
:100A4000E00EF11ECC23C1F1C501B4010E949A0849
:100A50009B01AC01C301B2010E9487074B015C01FD
:100A60006EE285E391E00E94D303E80EF91EC150C7
:100A700018F120E030E040E251E4C501B4010E94E9
:100A800051092B013C010E946B084B01B12CA12C98
:100A90004AE0C501B4010E944D04E80EF91EC501EB
:100AA000B4010E949A089B01AC01C301B2010E94EB
:100AB00087074B015C01DBCFC701CF911F910F91DD
:100AC000FF90EF90DF90CF90BF90AF909F908F906E
:100AD0007F906F905F904F9008951F920F920FB686
:100AE0000F9211242F933F938F939F93AF93BF93B4
:100AF0008091310190913201A0913301B091340184
:100B000030912C0123E0230F2D3758F50196A11DBC
:100B1000B11D20932C018093310190933201A09359
:100B20003301B093340180912D0190912E01A09159
:100B30002F01B09130010196A11DB11D80932D01AF
:100B400090932E01A0932F01B0933001BF91AF91EC
:100B50009F918F913F912F910F900FBE0F901F90FB
:100B6000189526E8230F0296A11DB11DD2CF1F9222
:100B70000F920FB60F9211242F933F934F935F93D1
:100B80006F937F938F939F93AF93BF93EF93FF9355
:100B900085E391E00E94B103FF91EF91BF91AF9186
:100BA0009F918F917F916F915F914F913F912F9185
:100BB0000F900FBE0F901F9018951F920F920FB6B7
:100BC0000F9211242F938F939F93EF93FF93E091B4
:100BD0004501F09146018081E0914B01F0914C017B
:100BE00082FD1BC0908180914E018F5F8F73209199
:100BF0004F01821741F0E0914E01F0E0EB5CFE4FB7
:100C0000958F80934E01FF91EF919F918F912F913E
:100C10000F900FBE0F901F9018958081F4CFE5E3E1
:100C2000F1E01382128288EE93E0A0E0B0E08483CA
:100C30009583A683B78384E091E09183808385ECDC
:100C400090E09587848784EC90E09787868780EC96
:100C500090E0918B808B81EC90E0938B828B82EC87
:100C600090E0958B848B86EC90E0978B868B118E31
:100C7000128E138E148EA2EDB1E08EE015968C9339
:100C800015978BE016968C931697ECEBF0E0E491B9
:100C90001796EC931797E8EAF0E0E4911896EC9336
:100CA000189740E85EE360E070E01D964D935D9319
:100CB0006D937C9350970895789484B5826084BD39
:100CC00084B5816084BD85B5826085BD85B5816050
:100CD00085BD80916E00816080936E0010928100CE
:100CE0008091810082608093810080918100816089
:100CF000809381008091800081608093800080914A
:100D0000B10084608093B1008091B00081608093D5
:100D1000B00080917A00846080937A0080917A009C
:100D2000826080937A0080917A00816080937A005B
:100D300080917A00806880937A001092C100E091DF
:100D40004501F091460182E08083E0914101F091FC
:100D500042011082E0914301F09144018FEC8083C5
:100D600010924D01E0914901F0914A0186E08083A3
:100D7000E0914701F0914801808180618083E0919A
:100D80004701F0914801808188608083E0914701AC
:100D9000F0914801808180688083E0914701F09163
:100DA000480180818F7D808362E08091D7010E941D
:100DB0004E012FB7F8948091310190913201A091AA
:100DC0003301B09134012FBF805D9740A109B10973
:100DD0008093DB019093DC01A093DD01B093DE01F1
:100DE00087E38093E40164EF71E080E090E00E948B
:100DF000A401C0E0D0E00E94D601882311F180E078
:100E00000E94C4006B017C01C0922801D09229018C
:100E1000E0922A01F0922B010E94D6010E94D60195
:100E2000882351F08091D8018B3030F08D3080F0E4
:100E30008551823008F459C060E070E080EC9FE793
:100E400023C0C12CD12C80ECE82E8FE7F82EDCCF0C
:100E50006091D30170E090E080E00E949C082DEC4E
:100E60003CEC4CEC5DE30E9451094B015C0160914C
:100E7000D20170E090E080E00E949C089B01AC01F0
:100E8000C501B4010E948807609324017093250175
:100E9000809326019093270142E0C701B6010E948A
:100EA00091048EE191E00E944004609124017091D0
:100EB0002501809126019091270142E00E94910432
:100EC00080E291E00E94400468EE73E080E090E0F0
:100ED0000E94A401209709F48ECF0E949D038823CD
:100EE00009F489CF0E94000086CF6091D2017091F1
:100EF000D30176276727762790E080E00E949A0842
:100F00002DEC3CEC4CEC5DE30E945109BDCF5058F8
:100F1000BB27AA270E949F070C9412090E9404096C
:100F200038F00E940B0920F039F49F3F19F426F4A1
:100F30000C9401090EF4E095E7FB0C94FB08E92FF3
:100F40000E94230958F3BA176207730784079507AD
:100F500020F079F4A6F50C9445090EF4E0950B2EDB
:100F6000BA2FA02D0B01B90190010C01CA01A001FB
:100F70001124FF27591B99F0593F50F4503E68F156
:100F80001A16F040A22F232F342F4427585FF3CF97
:100F9000469537952795A795F0405395C9F77EF468
:100FA0001F16BA0B620B730B840BBAF09150A1F0B1
:100FB000FF0FBB1F661F771F881FC2F70EC0BA0F37
:100FC000621F731F841F48F4879577956795B795BF
:100FD000F7959E3F08F0B0CF9395880F08F09927BA
:100FE000EE0F9795879508950E94D70808F481E041
:100FF00008950E940D080C9412090E940B0958F0E4
:101000000E94040940F029F45F3F29F00C94FB088A
:1010100051110C9446090C9401090E94230968F3AC
:101020009923B1F3552391F3951B550BBB27AA27A1
:1010300062177307840738F09F5F5F4F220F331FDB
:10104000441FAA1FA9F335D00E2E3AF0E0E832D0A3
:1010500091505040E695001CCAF72BD0FE2F29D0A6
:10106000660F771F881FBB1F261737074807AB0778
:10107000B0E809F0BB0B802DBF01FF2793585F4FED
:101080003AF09E3F510578F00C94FB080C94460909
:101090005F3FE4F3983ED4F3869577956795B795CF
:1010A000F7959F5FC9F7880F911D9695879597F9DA
:1010B0000895E1E0660F771F881FBB1F6217730753
:1010C0008407BA0720F0621B730B840BBA0BEE1F68
:1010D00088F7E09508950E942B0988F09F5798F0B3
:1010E000B92F9927B751B0F0E1F0660F771F881F2D
:1010F000991F1AF0BA95C9F714C0B13091F00E9447
:101100004509B1E008950C944509672F782F882789
:10111000B85F39F0B93FCCF3869577956795B3956D
:10112000D9F73EF490958095709561957F4F8F4FDC
:101130009F4F0895E89409C097FB3EF490958095E1
:10114000709561957F4F8F4F9F4F9923A9F0F92F8D
:1011500096E9BB279395F695879577956795B7950B
:10116000F111F8CFFAF4BB0F11F460FF1BC06F5FF1
:101170007F4F8F4F9F4F16C0882311F096E911C003
:10118000772321F09EE8872F762F05C0662371F024
:1011900096E8862F70E060E02AF09A95660F771F38
:1011A000881FDAF7880F9695879597F90895990F14
:1011B0000008550FAA0BE0E8FEEF16161706E80721
:1011C000F907C0F012161306E407F50798F0621B42
:1011D000730B840B950B39F40A2661F0232B242B17
:1011E000252B21F408950A2609F4A140A6958FEF36
:1011F000811D811D089597F99F6780E870E060E088
:1012000008959FEF80EC089500240A94161617069F
:1012100018060906089500240A94121613061406E7
:1012200005060895092E0394000C11F4882352F04A
:10123000BB0F40F4BF2B11F460FF04C06F5F7F4F02
:101240008F4F9F4F089557FD9058440F551F59F0E9
:101250005F3F71F04795880F97FB991F61F09F3FA3
:1012600079F087950895121613061406551FF2CFCC
:101270004695F1DF08C0161617061806991FF1CF1C
:1012800086957105610508940895E894BB27662743
:101290007727CB0197F908950E94D70808F48FEFBC
:1012A00008950E9464090C9412090E94040938F000
:1012B0000E940B0920F0952311F00C94FB080C946C
:1012C000010911240C9446090E94230970F3959F8B
:1012D000C1F3950F50E0551F629FF001729FBB272D
:1012E000F00DB11D639FAA27F00DB11DAA1F649FC9
:1012F0006627B00DA11D661F829F2227B00DA11D7C
:10130000621F739FB00DA11D621F839FA00D611D01
:10131000221F749F3327A00D611D231F849F600D22
:10132000211D822F762F6A2F11249F5750409AF04B
:10133000F1F088234AF0EE0FFF1FBB1F661F771FD7
:10134000881F91505040A9F79E3F510580F00C94A2
:10135000FB080C9446095F3FE4F3983ED4F386956E
:1013600077956795B795F795E7959F5FC1F7FE2B42
:10137000880F911D9695879597F908950E94D70833
:10138000880B990B0895A1E21A2EAA1BBB1BFD0125
:101390000DC0AA1FBB1FEE1FFF1FA217B307E40754
:1013A000F50720F0A21BB30BE40BF50B661F771FAC
:1013B000881F991F1A9469F760957095809590958C
:1013C0009B01AC01BD01CF010895EE0FFF1F0590F9
:0A13D000F491E02D0994F894FFCF8A
:1013DA0000000000D30333036003200491036F036A
:1013EA0083036E616E00696E66006F7666002C007C
:0413FA000D0A0000D8
:00000001FF
